:020000040800F2
:1060000000FC0020D1CD00084DCE0008D9CE0008FC
:1060100045CF000847CF000849CF00080000000026
:106020000000000000000000000000004BCF00084E
:106030004DCF0008000000004FCF00084FCF0008F0
:1060400021CE000821CE00086DCF000821CE000827
:1060500021CE000821CE0008C3CF0008C9CF000818
:10606000CFCF0008D5CF0008DBCF000879CF0008DC
:1060700085CF000891CF00089DCF000821CE0008F1
:1060800021CE000821CE000821CE000821CE000834
:1060900021CE000821CE0008E1CF000821CE000863
:1060A00021CE000821CE000821CE000821CE000814
:1060B00021CE000821CE000821CE000821CE000804
:1060C0008DD0000899D0000821CE000821CE00080C
:1060D000A9CF0008C1CF000875D0000821CE000864
:1060E00021CE000821D0000855CF000821CE00089D
:1060F00021CE000821CE000821CE000821CE0008C4
:1061000021CE000821CE000861CF0008A5D00008EC
:1061100021CE000821CE000821CE000821CE0008A3
:1061200021CE000821CE000821CE000821CE000893
:0861300021CE000821CE000879
:1061400010B5054C237833B9044B13B10448AFF3B1
:1061500000800123237010BD600E002000000000AD
:1061600050E8020808B5034B1BB103490348AFF3DD
:10617000008008BD00000000640E002050E8020806
:1061800010F8012B11F8013B012A28BF9A42F7D0E1
:10619000D01A7047034613F8012B002AFBD1181AB6
:1061A00001387047000000000000000000000000FF
:1061B00001F0FF01102A2BDB10F0070F08D010F8B8
:1061C000013B013A8B422DD010F0070F42B3F6D1BC
:1061D000F0B441EA012141EA014122F007047FF0D5
:1061E00000070023F0E80256083C85EA010586EA2C
:1061F000010685FA47F5A3FA87F586FA47F6A5FA68
:1062000087F68EB9EED1F0BC01F0FF0102F0070273
:1062100032B110F8013B013A83EA010313B1F8D11E
:106220000020704701387047002D06BF35460338FF
:10623000073815F0010F07D1013015F4807F02BF38
:10624000013015F4C03F0130F0BC0138704700BF89
:1062500081F0004102E000BF83F0004330B54FEA17
:1062600041044FEA430594EA050F08BF90EA020F84
:106270001FBF54EA000C55EA020C7FEA645C7FEA17
:10628000655C00F0E2804FEA5454D4EB5555B8BF3A
:106290006D420CDD2C4480EA020281EA030382EAAB
:1062A000000083EA010180EA020281EA0303362D3D
:1062B00088BF30BD11F0004F4FEA01314FF4801C10
:1062C0004CEA113102D0404261EB410113F0004F22
:1062D0004FEA03334CEA133302D0524263EB4303D9
:1062E00094EA050F00F0A780A4F10104D5F1200E77
:1062F0000DDB02FA0EFC22FA05F2801841F10001D2
:1063000003FA0EF2801843FA05F359410EE0A5F1A5
:1063100020050EF1200E012A03FA0EFC28BF4CF0D6
:10632000020C43FA05F3C01851EBE37101F000458C
:1063300007D54FF0000EDCF1000C7EEB00006EEB99
:106340000101B1F5801F1BD3B1F5001F0CD3490823
:106350005FEA30004FEA3C0C04F101044FEA44527A
:1063600012F5800F80F09A80BCF1004F08BF5FEA01
:10637000500C50F1000041EB045141EA050130BDE1
:106380005FEA4C0C404141EB0101013C28BFB1F5F3
:10639000801FE9D291F0000F04BF01460020B1FA3E
:1063A00081F308BF2033A3F10B03B3F120020CDA11
:1063B0000C3208DD02F1140CC2F10C0201FA0CF0EF
:1063C00021FA02F10CE002F11402D8BFC2F1200C54
:1063D00001FA02F120FA0CFCDCBF41EA0C0190400A
:1063E000E41AA2BF01EB0451294330BD6FEA040453
:1063F0001F3C1CDA0C340EDC04F11404C4F120023E
:1064000020FA04F001FA02F340EA030021FA04F34F
:1064100045EA030130BDC4F10C04C4F1200220FAA6
:1064200002F001FA04F340EA0300294630BD21FAE4
:1064300004F0294630BD94F0000F83F4801306BFAA
:1064400081F480110134013D4EE77FEA645C18BF9E
:106450007FEA655C29D094EA050F08BF90EA020F35
:1064600005D054EA000C04BF1946104630BD91EA2D
:10647000030F1EBF0021002030BD5FEA545C05D130
:106480004000494128BF41F0004130BD14F580046F
:106490003CBF01F5801130BD01F0004545F0FE41E3
:1064A00041F470014FF0000030BD7FEA645C1ABF18
:1064B000194610467FEA655C1CBF0B46024650EA4F
:1064C000013406BF52EA033591EA030F41F400217B
:1064D00030BD00BF90F0000F04BF0021704730B501
:1064E0004FF4806404F132044FF000054FF00001D6
:1064F00050E700BF90F0000F04BF0021704730B597
:106500004FF4806404F1320410F0004548BF40426B
:106510004FF000013EE700BF42004FEAE2014FEAC0
:1065200031014FEA02701FBF12F07F4393F07F4F9B
:1065300081F06051704732F07F4208BF704793F09E
:106540007F4F04BF41F40021704730B54FF46074B1
:1065500001F0004521F000411CE700BF50EA0102B4
:1065600008BF704730B54FF000050AE050EA01025D
:1065700008BF704730B511F0004502D5404261EBCD
:1065800041014FF4806404F132045FEA915C3FF40E
:10659000D8AE4FF003025FEADC0C18BF03325FEAAB
:1065A000DC0C18BF033202EBDC02C2F1200300FA5C
:1065B00003FC20FA02F001FA03FE40EA0E0021FA81
:1065C00002F11444BDE600BF70B54FF0FF0C4CF46F
:1065D000E06C1CEA11541DBF1CEA135594EA0C0F21
:1065E00095EA0C0F00F0DEF82C4481EA030621EA5C
:1065F0004C5123EA4C5350EA013518BF52EA033597
:1066000041F4801143F4801338D0A0FB02CE4FF048
:106610000005E1FB02E506F00042E0FB03E54FF078
:106620000006E1FB03569CF0000F18BF4EF0010E70
:10663000A4F1FF04B6F5007F64F5407404D25FEA6C
:106640004E0E6D4146EB060642EAC62141EA55511F
:106650004FEAC52040EA5E504FEACE2EB4F1FD0C61
:1066600088BFBCF5E06F1ED8BEF1004F08BF5FEADF
:10667000500E50F1000041EB045170BD06F0004691
:1066800046EA010140EA020081EA0301B4EB5C043E
:10669000C2BFD4EB0C0541EA045170BD41F4801136
:1066A0004FF0000E013C00F3AB8014F1360FDEBF5B
:1066B000002001F0004170BDC4F10004203C35DA37
:1066C0000C341BDC04F11404C4F1200500FA05F3BA
:1066D00020FA04F001FA05F240EA020001F000425B
:1066E00021F0004110EBD37021FA04F642EB0601D1
:1066F0005EEA430E08BF20EAD37070BDC4F10C04FB
:10670000C4F1200500FA04F320FA05F001FA04F2BE
:1067100040EA020001F0004110EBD37041F10001AA
:106720005EEA430E08BF20EAD37070BDC4F12005B5
:1067300000FA05F24EEA020E20FA04F301FA05F21D
:1067400043EA020321FA04F001F0004121FA04F2C5
:1067500020EA020000EBD3705EEA430E08BF20EA95
:10676000D37070BD94F0000F0FD101F000464000CF
:1067700041EB010111F4801F08BF013CF7D041EA51
:10678000060195F0000F18BF704703F00046520055
:1067900043EB030313F4801F08BF013DF7D043EA26
:1067A0000603704794EA0C0F0CEA135518BF95EADC
:1067B0000C0F0CD050EA410618BF52EA4306D1D163
:1067C00081EA030101F000414FF0000070BD50EA82
:1067D000410606BF1046194652EA430619D094EA0C
:1067E0000C0F02D150EA013613D195EA0C0F05D1F6
:1067F00052EA03361CBF104619460AD181EA03014A
:1068000001F0004141F0FE4141F470014FF0000001
:1068100070BD41F0FE4141F4780170BD70B54FF09C
:10682000FF0C4CF4E06C1CEA11541DBF1CEA13551C
:1068300094EA0C0F95EA0C0F00F0A7F8A4EB0504FE
:1068400081EA030E52EA03354FEA013100F08880F5
:106850004FEA03334FF0805545EA131343EA1263BE
:106860004FEA022245EA111545EA10654FEA002673
:106870000EF000419D4208BF964244F1FD0404F52C
:10688000407402D25B084FEA3202B61A65EB030588
:106890005B084FEA32024FF480104FF4002CB6EB45
:1068A000020E75EB030E22BFB61A754640EA0C00C5
:1068B0005B084FEA3202B6EB020E75EB030E22BF05
:1068C000B61A754640EA5C005B084FEA3202B6EB46
:1068D000020E75EB030E22BFB61A754640EA9C0005
:1068E0005B084FEA3202B6EB020E75EB030E22BFD5
:1068F000B61A754640EADC0055EA060E18D04FEA93
:10690000051545EA16754FEA06164FEAC30343EA32
:1069100052734FEAC2025FEA1C1CC0D111F4801FFF
:106920000BD141EA00014FF000004FF0004CB6E7F8
:1069300011F4801F04BF01430020B4F1FD0C88BF97
:10694000BCF5E06F3FF6AFAEB5EB030C04BFB6EBA2
:10695000020C5FEA500C50F1000041EB045170BD95
:106960000EF0004E4EEA113114EB5C04C2BFD4EBC2
:106970000C0541EA045170BD41F480114FF0000E46
:10698000013C90E645EA060E8DE60CEA135594EAC2
:106990000C0F08BF95EA0C0F3FF43BAF94EA0C0FC5
:1069A0000AD150EA01347FF434AF95EA0C0F7FF43A
:1069B00025AF104619462CE795EA0C0F06D152EA8E
:1069C00003353FF4FDAE1046194622E750EA410672
:1069D00018BF52EA43067FF4C5AE50EA41047FF483
:1069E0000DAF52EA43057FF4EBAE12E74FF0FF3CE8
:1069F00006E000BF4FF0010C02E000BF4FF0010CB9
:106A00004DF804CD4FEA410C7FEA6C5C4FEA430C31
:106A100018BF7FEA6C5C1BD001B050EA410C0CBF80
:106A200052EA430C91EA030F02BF90EA020F0020E2
:106A3000704710F1000F91EA030F58BF994208BF49
:106A400090422CBFD8176FEAE37040F00100704706
:106A50004FEA410C7FEA6C5C02D150EA013C07D15D
:106A60004FEA430C7FEA6C5CD6D152EA033CD3D0A8
:106A70005DF8040B704700BF8446104662468C46A2
:106A80001946634600E000BF01B5FFF7B7FF0028D5
:106A900048BF10F1000F01BD4DF808EDFFF7F4FFFE
:106AA0000CBF012000205DF808FB00BF4DF808ED89
:106AB000FFF7EAFF34BF012000205DF808FB00BFAC
:106AC0004DF808EDFFF7E0FF94BF012000205DF8CE
:106AD00008FB00BF4DF808EDFFF7CEFF94BF012083
:106AE00000205DF808FB00BF4DF808EDFFF7C4FF7C
:106AF00034BF012000205DF808FB00BF4FEA410CC5
:106B00007FEA6C5C02D150EA013C0AD14FEA430CA7
:106B10007FEA6C5C02D152EA033C02D14FF00000E4
:106B200070474FF0010070474FEA410212F5001222
:106B300015D211D56FF47873B3EB625212D94FEAC4
:106B4000C12343F0004343EA505311F0004F23FAAE
:106B500002F018BF404270474FF00000704750EA03
:106B6000013005D111F0004008BF6FF000407047C0
:106B70004FF00000704700BF4A0011D212F500121A
:106B800011D20DD56FF47873B3EB62520ED44FEA85
:106B9000C12343F0004343EA505323FA02F0704705
:106BA0004FF00000704750EA013002D14FF0FF3043
:106BB00070474FF0000070474FEA4102B2F1E043E6
:106BC00024BFB3F5001CDCF1FE5C0DD901F0004CD4
:106BD0004FEAC0024CEA5070B2F1004F40EB830024
:106BE00008BF20F00100704711F0804F21D113F150
:106BF0003872BCBF01F00040704741F480114FEA89
:106C00005252C2F11802C2F1200C10FA0CF320FA11
:106C100002F018BF40F001004FEAC1234FEAD3232E
:106C200003FA0CFC40EA0C0023FA02F34FEA430398
:106C3000CCE77FEA625307D150EA01331EBF4FF021
:106C4000FE4040F44000704701F0004040F0FE403C
:106C500040F40000704700BF80F0004002E000BF39
:106C600081F0004142001FBF5FEA410392EA030F37
:106C70007FEA226C7FEA236C6AD04FEA1262D2EB81
:106C80001363C1BFD218414048404140B8BF5B4286
:106C9000192B88BF704710F0004F40F4000020F01F
:106CA0007F4018BF404211F0004F41F4000121F035
:106CB0007F4118BF494292EA030F3FD0A2F101027F
:106CC00041FA03FC10EB0C00C3F1200301FA03F1BD
:106CD00000F0004302D5494260EB4000B0F5000FE0
:106CE00013D3B0F1807F06D340084FEA310102F19F
:106CF0000102FE2A51D2B1F1004F40EBC25008BF51
:106D000020F0010040EA03007047490040EB00001A
:106D1000013A28BFB0F5000FEDD2B0FA80FCACF11B
:106D2000080CB2EB0C0200FA0CF0AABF00EBC25048
:106D300052421843BCBFD0401843704792F0000F36
:106D400081F4000106BF80F400000132013BB5E789
:106D50004FEA41037FEA226C18BF7FEA236C21D0FF
:106D600092EA030F04D092F0000F08BF0846704764
:106D700090EA010F1CBF0020704712F07F4F04D132
:106D8000400028BF40F00040704712F100723CBF45
:106D900000F50000704700F0004343F0FE4040F46F
:106DA000000070477FEA226216BF08467FEA23632D
:106DB0000146420206BF5FEA412390EA010F40F418
:106DC000800070474FF0000304E000BF10F0004364
:106DD00048BF40425FEA000C08BF704743F096434B
:106DE00001464FF000001CE050EA010208BF704766
:106DF0004FF000030AE000BF50EA010208BF7047ED
:106E000011F0004302D5404261EB41015FEA010C01
:106E100002BF84460146002043F0B64308BFA3F1F9
:106E20008053A3F50003BCFA8CF2083AA3EBC253DB
:106E300010DB01FA02FC634400FA02FCC2F12002FA
:106E4000BCF1004F20FA02F243EB020008BF20F031
:106E50000100704702F1200201FA02FCC2F1200297
:106E600050EA4C0021FA02F243EB020008BF20EA8C
:106E7000DC7070474FF0FF0C1CEAD0521EBF1CEABA
:106E8000D15392EA0C0F93EA0C0F6FD01A4480EAA8
:106E9000010C400218BF5FEA41211ED04FF0006391
:106EA00043EA501043EA5111A0FB01310CF00040BD
:106EB000B1F5000F3EBF490041EAD3715B0040EAE3
:106EC000010062F17F02FD2A1DD8B3F1004F40EBB3
:106ED000C25008BF20F00100704790F0000F0CF086
:106EE000004C08BF49024CEA502040EA51207F3A4A
:106EF000C2BFD2F1FF0340EAC250704740F4000025
:106F00004FF00003013A5DDC12F1190FDCBF00F015
:106F100000407047C2F10002410021FA02F1C2F1C3
:106F2000200200FA02FC5FEA310040F1000053EA5F
:106F30004C0308BF20EADC70704792F0000F00F0AD
:106F4000004C02BF400010F4000F013AF9D040EAB3
:106F50000C0093F0000F01F0004C02BF490011F447
:106F6000000F013BF9D041EA0C018FE70CEAD15345
:106F700092EA0C0F18BF93EA0C0F0AD030F0004CC5
:106F800018BF31F0004CD8D180EA010000F0004079
:106F9000704790F0000F17BF90F0004F084691F037
:106FA000000F91F0004F14D092EA0C0F01D1420271
:106FB0000FD193EA0C0F03D14B0218BF084608D13A
:106FC00080EA010000F0004040F0FE4040F4000084
:106FD000704740F0FE4040F4400070474FF0FF0C17
:106FE0001CEAD0521EBF1CEAD15392EA0C0F93EA5E
:106FF0000C0F69D0A2EB030280EA010C49024FEAB0
:10700000402037D04FF0805343EA111143EA101368
:107010000CF000408B4238BF5B0042F17D024FF420
:10702000000C8B4224BF5B1A40EA0C00B3EB510FFB
:1070300024BFA3EB510340EA5C00B3EB910F24BFE4
:10704000A3EB910340EA9C00B3EBD10F24BFA3EB69
:10705000D10340EADC001B0118BF5FEA1C1CE0D131
:10706000FD2A3FF650AF8B4240EBC25008BF20F0E4
:10707000010070470CF0004C4CEA50207F32C2BF38
:10708000D2F1FF0340EAC250704740F400004FF0D5
:107090000003013A37E792F0000F00F0004C02BF06
:1070A000400010F4000F013AF9D040EA0C0093F0D0
:1070B000000F01F0004C02BF490011F4000F013B2A
:1070C000F9D041EA0C0195E70CEAD15392EA0C0F92
:1070D00008D142027FF47DAF93EA0C0F7FF470AFCA
:1070E000084676E793EA0C0F04D14B023FF44CAF0D
:1070F00008466EE730F0004C18BF31F0004CCAD1A2
:1071000030F000427FF45CAF31F000437FF43CAFDD
:107110005FE700BF4FF0FF3C06E000BF4FF0010CFF
:1071200002E000BF4FF0010C4DF804CD4FEA4002E1
:107130004FEA41037FEA226C18BF7FEA236C11D02B
:1071400001B052EA530C18BF90EA010F58BFB2EBDE
:10715000030088BFC81738BF6FEAE17018BF40F05E
:10716000010070477FEA226C02D15FEA402C05D112
:107170007FEA236CE4D15FEA412CE1D05DF8040B97
:10718000704700BF844608466146FFE70FB5FFF72A
:10719000C9FF002848BF10F1000F0FBD4DF808EDE2
:1071A000FFF7F4FF0CBF012000205DF808FB00BFD3
:1071B0004DF808EDFFF7EAFF34BF012000205DF82D
:1071C00008FB00BF4DF808EDFFF7E0FF94BF01207A
:1071D00000205DF808FB00BF4DF808EDFFF7D2FF77
:1071E00094BF012000205DF808FB00BF4DF808EDBA
:1071F000FFF7C8FF34BF012000205DF808FB00BF87
:107200004FEA4002B2F1FE4F0FD34FF09E03B3EBB3
:1072100012620DD94FEA002343F0004310F0004FF3
:1072200023FA02F018BF404270474FF00000704749
:1072300012F1610F01D1420205D110F0004008BFE8
:107240006FF0004070474FF00000704742000ED2D0
:10725000B2F1FE4F0BD34FF09E03B3EB126209D491
:107260004FEA002343F0004323FA02F070474FF047
:107270000000704712F1610F01D1420202D14FF0BC
:10728000FF3070474FF00000704700BF53B94AB954
:10729000002908BF00281CBF4FF0FF314FF0FF301E
:1072A00000F06CB9ADF1080C6DE904CE00F006F801
:1072B000DDF804E0DDE9022304B070472DE9F04772
:1072C000089E0D4604468E46002B40F082808A427E
:1072D000174646D9B2FA82F24AB1C2F1200105FA44
:1072E00002F320FA01F1974041EA030E94404FEA7D
:1072F0001748230CBEFBF8FCB9B208FB1CEE43EAAE
:107300000E430CFB01F098420AD9FB180CF1FF3533
:1073100080F01681984240F21381ACF1020C3B449C
:107320001B1AA4B2B3FBF8F008FB103344EA034481
:1073300000FB01F1A14209D93C1900F1FF3380F0B3
:107340000181A14240F2FE8002383C44641A40EAC6
:107350000C4000211EB1D4400023C6E90043BDE823
:10736000F08702B9FFDEB2FA82F2002A4FD1CB1BBE
:107370004FEA174E1FFA87F80121B3FBFEFC250CDC
:107380000EFB1C3345EA034508FB0CF3AB4207D95F
:107390007D190CF1FF3002D2AB4200F2E780844647
:1073A000ED1AA3B2B5FBFEF00EFB105543EA0544FF
:1073B00008FB00F8A04507D93C1900F1FF3302D2C1
:1073C000A04500F2D7801846A4EB080440EA0C4020
:1073D000C0E78B4208D9002E00F0AF800021C6E93B
:1073E00000050846BDE8F087B3FA83F100294BD1C8
:1073F000AB4202D3824200F2B780841A65EB0303EA
:1074000001209E46002EAAD0C6E9004EA7E7C2F191
:10741000200C01FA02F3974020FA0CF04FEA174EC5
:1074200021FA0CFC1843BCFBFEF1050C0EFB11CC41
:107430001FFA87F845EA0C4501FB08F3AB4204FA52
:1074400002F409D97D1901F1FF3C80F08B80AB4239
:1074500040F2888002393D44EB1A85B2B3FBFEF05E
:107460000EFB103345EA034500FB08F3AB4207D996
:107470007D1900F1FF3C71D2AB426FD902383D4417
:10748000EB1A40EA014178E7C1F1200C8B4022FA67
:107490000CF71F4320FA0CF405FA01F34FEA174EDC
:1074A00025FA0CF51C43230CB5FBFEF91FFA87F8EF
:1074B0000EFB195543EA054509FB08FAAA4502FAED
:1074C00001F200FA01F308D97D1909F1FF3047D222
:1074D000AA4545D9A9F102093D44A5EB0A05A4B284
:1074E000B5FBFEF00EFB105544EA054400FB08F81E
:1074F000A04507D93C1900F1FF352DD2A0452BD965
:1075000002383C4440EA0940A4EB0804A0FB02898D
:107510004C45C6464D4619D316D05EB1B3EB0E02AC
:1075200064EB050404FA0CFCCA404CEA0202CC40AD
:10753000C6E900240021BDE8F087314630460EE759
:10754000AC46EDE6184601E74345E6D2B8EB020E3D
:1075500069EB07050138E0E72846D3E760468FE787
:107560008146BAE7614677E708464BE7ACF1020C83
:107570003D4415E702383C4426E700BF704700BF92
:1075800070470000014B01221A7070473A0F00202B
:10759000044B01221A70044BD86C431C18BF1320F3
:1075A00007F072BA3B0F0020A0EE020800B50D48AC
:1075B0000D49C1B000F097FC0A4800F031FD20B140
:1075C0004FF48072694600F06DFD064800F08DFCB6
:1075D00020B14FF48072694600F064FD41B05DF85F
:1075E00004FB00BF9C0F0020DC1E002070B5094E7C
:1075F000094C0A25304601F016F8FFF7E3FB216835
:10760000FFF730FB013D2060F4D10449FFF7E6FCB1
:10761000206070BD9C0E002008000020000020416A
:107620001FB50446C4F16404174901A804EB84049F
:1076300007F066FCB4F5967F09DD144901A807F050
:1076400099FC01A807F016FC20B204B010BDA4F10B
:10765000C903632B01D80E49F0E7A4F1B003182B3E
:1076600001D80C49EAE7A4F19703182B01D80A497D
:10767000E4E7A4F13303632B01D80849DEE7322C99
:10768000DFD80749DAE700BF04EA020814EA020873
:107690001EEA020823EA02082DEA02084CEA020860
:1076A00055EA0208000000002DE9F0412848294D64
:1076B00000F0B3FF28490446FFF78EFD48B1274983
:1076C0002046FFF77FFD20B119232B602868BDE815
:1076D000F081234B2046D3F80080FEF71DFF0646BD
:1076E0000F4620461C49FFF763FDA0B14046FEF758
:1076F00013FF02460B4600201A49FFF78FF8324667
:107700003B46FEF761FF184B0022FEF75DFFFFF7D7
:107710000BFA2860DAE741461448FFF7A1FAFEF7B2
:10772000FBFE02460B4600201149FFF777F8324670
:107730003B46FEF749FF04A3D3E90023FEF78EFD85
:10774000E1E700BFAFF300808CBAD6DEA7AADA3F2C
:107750009C0E0020500F002000001842000028421C
:10776000100000200000D03F000059400000C84237
:107770000000D0BF1E4B2DE9F041D3F800801D4B17
:107780001868A0EB0800FEF7B5FE02460B46002085
:107790001949FFF743F8194B04460D461868FEF7E0
:1077A000BBFE22462B46FEF70FFF064640460F461D
:1077B000FEF7A0FE22462B46FEF706FF02460B46CA
:1077C00030463946FEF748FD0D4B0022FEF7FCFE21
:1077D000FFF7AAF94B280B4B02DD4B221A6002E09F
:1077E000002803DB18601868BDE8F0810022F5E787
:1077F000040000200C0000200000E83F08000020EA
:1078000000005940400F00202DE9F04F536E9DB00D
:1078100053B1012B04D103491068FEF7B1FC30B11C
:107820000220F1E1281D0308B74807F0A9FC142045
:1078300007F0FAFDB54BB64FB64EB74C80B2188084
:10784000FFF7C0FAFEF768FEADA3D3E90023FEF709
:10785000BBFEFFF791F9B14BB14985B2AA481D8033
:1078600007F05FFC0A2229B2A74807F0E9FC3A4674
:107870003146AC4802F07EFD01943B68AA4AAB4910
:107880000093127833680978A648A94EA94F02F0F0
:1078900093FCA94B1870D4E90001FFF745F9A74CF8
:1078A000A74903B29848039307F03BFC0399964815
:1078B0000A2207F0C5FC324623463946A14802F0A9
:1078C00030FCA1493868A14FFFF7D4FAFFF798FCC4
:1078D0009D4943B230680493FFF7CCFAFFF790FC60
:1078E00099499B4E43B220680A93FFF7C3FAFFF70A
:1078F00087FC9849984C43B283480B9307F011FCDE
:10790000049981480A2207F09BFC944800F0EDFAA4
:107910003A4633462146914800F042FB904B91494C
:1079200018803868904FFFF7A5FAFFF769FC3168B7
:107930000FFA80F80846FFF795F9FFF787FC2388D0
:107940008A4905935FFA80FB6F4807F0EAFB0A2239
:1079500041466D4807F074FC85496B4807F0E1FB30
:107960000A225946684807F089FC8249664807F0B0
:10797000D8FBBDF91430644806930A22194607F073
:107980005FFC7D4800F03BFE7649FFF773FAFFF796
:1079900037FC03B27848079300F03FFE0146FFF73B
:1079A00061F9FFF753FCC3B27348089300F02DFE52
:1079B0007249FFF713FBFFF723FC0FFA80FAFFF77A
:1079C00015FE0646FFF742FC83B20993FFF76CFEF3
:1079D0003860FFF7CFFE3C68694B044418602046CE
:1079E000FFF71EFE67498146474807F09AFB0A22C7
:1079F0000799454807F024FC6349434807F091FB89
:107A00000A220899404807F039FC60493E4807F0CF
:107A100088FB0A2251463C4807F01CFC5C493A4866
:107A200007F07FFB3046FEF777FD0B46022102464A
:107A30000091354807F0C8FC5649334807F071FB00
:107A40000A222146304807F0FBFB53492E4807F035
:107A500068FB0A2249462C4807F0F2FB00224F49F6
:107A6000134611F8010B01331E2B0244F9D14C4986
:107A700025484C4C64275743B7FBF3F707F051FBFD
:107A800039460A22204807F0DBFB474A13685C436B
:107A900007F0F7FC454B444A19680026401A444950
:107AA000B4FBF0F418481660E4B207F03AFB0A227F
:107AB0002146154807F0E2FB07F0E3FC3B4B8DF84D
:107AC00032B01860069B8DF840A01B128DF8333041
:107AD000059B8DF83430049B8DF835300A9B8DF86A
:107AE00036300B9B8DF83730039B8DF8449058BA95
:107AF000079BADF8380058BA5CE000BFAFF30080D8
:107B0000000050FBFF551340DC1D0020B60F002085
:107B1000540F0020B00F0020700F0020B40F002081
:107B20005AEA02086C0F0020580F00203C0F00207A
:107B3000640F0020600F0020AC0F0020680F0020B1
:107B40005FEA0208780F002000004842A80F0020DA
:107B50004C0F002064EA0208300F00209C0F002028
:107B6000380F00200000C842500F002069EA0208C8
:107B700072EA02087AEA02089C0E00200000204106
:107B8000400F002082EA02088BEA020893EA02080A
:107B90009DEA0208A5EA0208B8EA02087C0E002065
:107BA000BDEA0208A0860100A00F0020A40F00205B
:107BB000C2EA0208089B8DF83E304FEA2A238DF86E
:107BC0003F30099BADF83C001B128DF84130099BFA
:107BD0008DF842304FEA29238DF843300CAA052353
:107BE00017210B488DF8457098FA98F86DBAADF8E2
:107BF0003080ADF83A508DF8464006F0D8FF054980
:107C0000054807F0B3FA30461DB0BDE8F08F00BF5D
:107C1000981E0020C9EA0208DC1D002037B5524931
:107C2000524807F0A3FA5248002306224FF4E131EC
:107C300006F056FF022306224FF4E1314B4806F0CE
:107C40004FFF4C4807F0EEF90021152007F0F6FB36
:107C50000021132007F0F2FB0021732007F0EEFB58
:107C60000121002007F0EAFB0021084607F0FDFB98
:107C70000121122007F0E2FB0121122007F0F5FBA1
:107C8000FFF794FC3C493D48097800231A4602F06E
:107C90001FFB03220121394802F030FB374802F074
:107CA00081FA364802F010FB35480122762100F0B7
:107CB00029FD002856D133492C48334D07F056FA98
:107CC00004212F4800F0DEFC02212D4800F0EAFCE0
:107CD00003212B4800F0F6FC0221294800F002FDA8
:107CE00096224FF4A071264800F0A3FCFFF77EFC1B
:107CF000264802F05BF901220221244802F0F8F93B
:107D0000224802F0C1F9224B0093224B224A234819
:107D100002241946019406F0F3FF2148172200219E
:107D200007F068FB15221E48002107F063FB0121C4
:107D30001C4807F070FB1C49194807F053FB686D9D
:107D40001A49431C224618BF152006F080FEE86C35
:107D50001749421C18BF1320224603B0BDE830402B
:107D600006F075BE1349A7E7D3EA0208DC1D002020
:107D7000041E0020DC1E00203C0F00206C0F0020A1
:107D80009C0E0020DEEA0208A0EE0208780F002018
:107D90000978000826EB02082DEB0208921E00204D
:107DA0002C1E00202D1E00208175000885750008FE
:107DB0009175000812EB02082DE9F041294B2A4C7D
:107DC0001A782A4E012A04BF00221A702378012B48
:107DD00008D107F056FB264A30600223237013684F
:107DE0000133136007F04DFB224A234D13682860CE
:107DF000C31A41F288318B421DD91060152007F05B
:107E000039FBDFF8888008B198F800001B4F1C4A46
:107E10003B68D054152007F02DFB3B68003818BF95
:107E200001201D2B03F1010208BF002388F8000088
:107E300014BF3A603B6007F024FB33682860C01A27
:107E4000B0F5167F0CD92278022A09D10D4B0E49C4
:107E5000D86C431C18BF132006F0F9FD00232370D3
:107E6000BDE8F0813A0F00203B0F0020480F0020B2
:107E7000A00F0020440F0020340F00205C0F0020D2
:107E80007C0E0020A0EE020891750008980F0020DB
:107E900038B50C4C0C4D21461E22284601F0C8FF77
:107EA0000A490B4A284602F0E1FD0A4802F078F937
:107EB000094800F015F821460848BDE8384000F0B0
:107EC0002DBB00BFDC1E0020780F0020219E000883
:107ED000000000206C0F00209C0F00209C0E002052
:107EE0000022026070470160704730B587B00123FF
:107EF00002226946054601A800F089FA42F2B11152
:107F000001A800F08CFA044640B92A6801A9622051
:107F100000F0E6F90446012010F01CFF204607B0EF
:107F200030BDF0B58FB004460F46164602A91D4677
:107F30000922012309A800F06AFA4EF6054109A8B2
:107F400000F06DFA38BB226809A9622000F0C8F978
:107F500008BB012010F0FEFE092202A905A800F0CE
:107F60006BFA01230093236805AA0921622000F01F
:107F7000D9F980B9394605A800F064FA31460446BB
:107F800005A800F05FFA2946044305A800F05AFA54
:107F9000A4B2204380B20FB0F0BD0000000000008A
:107FA00073B516461D4601AA0DF10603FFF7B9FF8A
:107FB000044620BBBDF80400FEF79CFA12A3D3E9E7
:107FC0000023FEF701FB12A3D3E90023FEF726FCF2
:107FD000114B0022FEF740F9FEF7EEFD3060BDF8D0
:107FE0000600FEF787FA0D4B0022FEF7EDFA08A314
:107FF000D3E90023FEF712FCFEF7DEFD28602046E1
:1080000002B070BDAFF300800000000000E06540EA
:1080100000000000E0FFEF400080464000005940B3
:1080200030B587B0012302226946054601A800F059
:10803000EEF943F6867101A800F0F1F9044648B95B
:108040002A6801A9622000F04BF904464FF4FA7047
:1080500010F080FE204607B030BD30B50144044624
:108060001046A1420FD014F8012B0825504010F003
:10807000800F4FEA400218BF5A40D0B26A1E12F079
:10808000FF05F4D1EDE730BD3123FF22FFF7E5BF57
:1080900031230022FFF7E1BF0AB9FFF7F9BFFFF76D
:1080A000F3BF0000F0B506040C468BB0154600F493
:1080B0007F41C3B206D5724A2946204603F072F9C1
:1080C0000BB0F0BDB1F5407F00F0AC8009D8B1F540
:1080D000807F2ED0B1F5007F64D009B369492A466C
:1080E00021E0B1F5806F00F0A680B1F5A06FF5D169
:1080F000654E6F4606F1200E3A4630687168BC4600
:10810000ACE80300083676456746F6D13068B179A9
:10811000CCF80000B088ACF804008CF80610CBE76F
:108120000028DBD1594920460BB0BDE8F04003F0F0
:108130006DB9102BD2D801A252F823F0818100082A
:10814000DD800008DD800008DD800008DD8000089B
:10815000DD800008DD800008DD800008DD8000088B
:1081600087810008DD800008DD8000089381000819
:10817000998100089F810008DD8000088D8100083A
:1081800043492A46CFE743492A46CCE742492A4693
:10819000C9E742492A46C6E741492A46C3E7414959
:1081A0002A46C0E7102B99D801A252F823F000BF4D
:1081B000F5810008FB810008DD800008DD800008F3
:1081C000DD8000080782000801820008DD800008C9
:1081D000DD800008DD800008138200080D820008A1
:1081E000DD800008DD800008DD80000819820008BD
:1081F0001F8200082C492A4695E72C492A4692E717
:108200002B492A468FE72B492A468CE72A492A46DA
:1082100089E72A492A4686E729492A4683E72949E0
:108220002A4680E72BB1032B7FF458AF26492A4614
:1082300079E7264977E7082B3FF650AF01A252F8BD
:1082400023F000BF69820008DD8000086F8200080B
:108250002D820008DD800008DD800008DD80000838
:108260007B8200087582000819492A465BE7194994
:108270002A4658E718492A4655E718492A4652E738
:108280004DEB020869ED020880ED02086AEB020876
:1082900073EB02087FEB020897EB0208BFEB0208C2
:1082A000E4EB020806EC02081FEC02082AEC0208C4
:1082B00046EC020861EC020873EC020883EC020849
:1082C000A7EC0208C0EC0208EDEC0208DEEC0208A4
:1082D00008ED020817ED02082DED02084BED02082B
:1082E00070B514460D460146104606F0DBFE2368C5
:1082F000AA685B68296820469847012106462046FF
:1083000006F0DCFEAB68B34207D110F0FC0F04D1DD
:10831000034BC0B233F8100070BD4FF48770FBE719
:10832000A8ED02082DE9F04F904685B00324B1FB7B
:10833000F4F4620004EB44040C1B9DF838B0039085
:108340001E4658D1D8F804309A4257D80DB21E2D87
:10835000CCBF4FF0000A4FF0010A1E271E2DDCBFD4
:10836000EFB24FF0010A039953463A46304606F001
:1083700087FE8742814644D10746002F30D03268BD
:10838000304652699047D8F8002010553268304680
:1083900052699047D8F800202244A31C50703268DC
:1083A00002935269304690470190D8F800005A462F
:1083B00002212044FFF770FE9DF8042082420BD07A
:1083C000336830461B699847F0B1336830465B69C3
:1083D0009847F5E74F46C1E7033F029CFFB2CCE761
:1083E000A5EB09052DB2002DF4DCC8F80C40384689
:1083F00005B0BDE8F08F40F20A20F9E740F2032013
:10840000F6E740F20F20F3E740F20B20F0E710B55B
:10841000C0E900120222C0E90222037410BD4368C1
:10842000012B81BF03680A0A1A70036886BF002007
:10843000597040F203307047C0E900120022C0E9D1
:108440000222704770B5C468012C0FD98268066893
:10845000551C8560B35C02321B020B808260725D2A
:10846000023C13430B80C460002070BD40F2024008
:10847000FBE708B510F083FCBDE8084006F04DBCF2
:108480001FB504461846012300930DF10F038DF824
:108490000F4001F07FFC80F00100404240B204B088
:1084A00010BD1FB51C4660F07F038DF80F30002310
:1084B000CDE9002320460B4601220DF10F0101F00A
:1084C0008BFC80F00100404240B204B010BD1FB5EB
:1084D00004468DF80F4018460DF10F040123019357
:1084E000009401F0BFFA80F00100404240B204B0B5
:1084F00010BD30B5144685B001220546CDE90042D5
:1085000018460B460DF10F018DF80F5001F016FBC8
:1085100080F00100404240B205B030BD0022C0E909
:1085200004220262828481617047F8B5046A0646BB
:108530001CB1838C1C442046F8BD00F12805294657
:10854000012000F0E0FD0028F5D12A4606F178016F
:10855000012000F0CFFEB6F884404FF47A7707FB95
:10856000040406F08EFFB4FBF7F43062B48410FA12
:1085700084F4E0E738B5046A3CB1858C06F081FFED
:108580002C44201A20EAE07038BD4FF0FF30FBE7A2
:1085900030B589B00546FFF7C8FF60B32846FFF73E
:1085A000E9FF002802DD400010F0D4FB00242C621B
:1085B000AC8405F128030DF1070202A9012000F0A7
:1085C000D7FEB8B99DF8073083B1049B2B60069B9A
:1085D000AB600598FEF73AFE9DF80830686013F02E
:1085E000300305D00798FEF731FEE860012002E075
:1085F000EB60FBE7204609B030BDFFF7C9BF10B5FF
:108600000446FFF7FAFF206810BD10B50446FFF7D7
:10861000F4FF6068FEF7D6FB10BD10B50446FFF707
:10862000ECFFA06810BD10B50446FFF7E6FFE06858
:1086300010BD08B501B16AB9002380F8803000F19F
:10864000280200F18001012001F0AAF8B0FA80F0C0
:10865000400908BD012380F88030A0F88210A0F8FE
:108660008420ECE7082908B50AD880F87C1000F1CE
:108670002801783000F098FDB0FA80F0400908BD7C
:108680000020FCE7052908B50AD880F8791000F128
:108690002801783000F088FDB0FA80F0400908BD6C
:1086A0000020FCE7052908B50AD880F8781000F109
:1086B0002801783000F078FDB0FA80F0400908BD5C
:1086C0000020FCE7052908B50AD880F87A1000F1E7
:1086D0002801783000F068FDB0FA80F0400908BD4C
:1086E0000020FCE7072908B50AD880F87B1000F1C4
:1086F0002801783000F058FDB0FA80F0400908BD3C
:108700000020FCE7F8B5044640690E4615460028EF
:108710004DD1206908B104F03BFB102004F03AFB76
:1087200031460746A26901F071F9276101213846F7
:1087300001F089F908B90020F8BD012384F834302C
:108740002369E362234BA366234B84F82860E36626
:10875000192384F8363004F12806204B236730466D
:1087600000F018FC0028E6D185B302212046FFF76F
:10877000B9FF08212046FFF775FF02212046FFF7C9
:1087800091FF03212046FFF79DFF04212046FFF7BC
:1087900079FF96224FF4A0712046FFF74AFF314639
:1087A000012000F0B0FCB0FA80F04009C4E701F00D
:1087B000DCF90028BFD0002384F8283084F8343056
:1087C0006369E362064BA366064BC0E72A46294667
:1087D000E2E700BFF3840008CF8400087384000838
:1087E000A384000881840008F8B50C46FEF7EAFA75
:1087F0000646E08BFEF7E6FA4FF05C510546304640
:10880000FEF738FB4FF0645107462846FEF732FB6F
:1088100001463846FEF724FA4FF0625107463046CB
:10882000FEF728FB4FF06A5106462846FEF722FB6A
:1088300001463046FEF714FA0546B4F92000FEF76B
:10884000C5FA01462846FEF715FB054694F92200B5
:10885000FEF7BCFA4FF08341FEF70CFB39460646A3
:108860003846FEF707FB01463046FEF703FB01469C
:108870002846FEF7F7F90249A063FEF7AFFBF8BD03
:108880000000A0452DE9F0410C4680464FF07C5198
:10889000A06BFEF7EFFA6949FEF7E2F9054694F995
:1088A0002800FEF793FA2946FEF7E4FA2946FEF778
:1088B000E1FA4FF06251FEF7DDFA0646B4F9260000
:1088C000FEF784FA2946FEF7D5FA01463046FEF750
:1088D000C9F94FF05851FEF7CDFA4FF06051FEF74D
:1088E000C9FA4FF07E51FEF7BDF90646A08CFEF79F
:1088F00069FA3146FEF7BEFA0646FEF781FC00280B
:1089000000F0998094F92E00FEF760FA4FF05C5168
:10891000FEF7B0FA294607462846FEF7ABFA0146AD
:108920003846FEF7A7FA0746B4F92C00FEF74EFAD0
:108930002946FEF79FFA0146FEF794F93946FEF7FD
:1089400091F94FF07A51FEF795FA07464046FEF747
:1089500039FA01464FF09340FEF782F90546B4F923
:108960002A00FEF733FA4FF08F41FEF783FA3946BB
:10897000FEF778F94FF06651FEF77CFA014628467B
:10898000FEF76EF92E49FEF775FA3146FEF726FB23
:108990004FF06E510546FEF76DFA0646B4F9320007
:1089A000FEF714FA2946FEF765FA2946FEF762FA41
:1089B0004FF04051FEF75EFA0746B4F93000FEF77B
:1089C00005FA4FF06051FEF755FA2946FEF752FAC4
:1089D00001463846FEF746F9074694F83400FEF79C
:1089E000F5F94FF05C51FEF745FA314680463046C6
:1089F000FEF740FA3146FEF73DFA01464046FEF7E3
:108A000039FA01463846FEF72DF9064694F92F004B
:108A1000FEF7DCF94FF08641FEF72CFA01463046AE
:108A2000FEF720F94FF07651FEF724FA2946FEF7BB
:108A300019F9BDE8F0810020FBE700BF00007A478C
:108A40000050C3452DE9F0410C4607464349A06B51
:108A5000FEF7C4FA054694F91500FEF7B7F94FF092
:108A60006251FEF707FA2946FEF704FA4FF07E51ED
:108A7000FEF7F8F8064694F91600FEF7A7F94FF04E
:108A80005651FEF7F7F92946FEF7F4F92946FEF7A5
:108A9000F1F901463046FEF7E5F80646608AFEF732
:108AA00091F94FF05A51FEF7E5F901463046FEF7CD
:108AB000E1F906463846FEF785F9074694F91400B1
:108AC000FEF784F94FF07C51FEF7D4F92946FEF702
:108AD000D1F98046208AFEF775F94FF08341FEF701
:108AE000C9F901464046FEF7BDF801463846FEF793
:108AF000B7F801463046FEF7BDF9064694F918006E
:108B0000FEF764F94FF05451FEF7B4F92946FEF729
:108B1000B1F90546E07DFEF755F94FF06251FEF7D9
:108B2000A9F901462846FEF79DF83146FEF7A2F95D
:108B30003146FEF79FF93146FEF794F8084904469E
:108B4000FEF754FB40B900212046FEF731FB00B18F
:108B500000242046BDE8F081014CFAE70000A04562
:108B60000000C84270B50646B1F91A000C46FEF77F
:108B70002DF94FF06051FEF77DF93749FEF77AF98C
:108B80003649FEF76FF8B6F5C87F0546304628BF70
:108B90004FF4C870FEF716F901462846FEF76AF949
:108BA0004FF07E51FEF75EF8054694F91900FEF786
:108BB0000DF94FF07651FEF75DF92949FEF752F8AD
:108BC00001462846FEF756F9054694F91C00FEF7C3
:108BD000FDF84FF06A51FEF74DF9064694F90E0084
:108BE000FEF7F4F801463046FEF744F90146284600
:108BF000FEF738F8054694F83C00FEF7E3F84FF02E
:108C00008141FEF72FF801464FF08140FEF7E6F96B
:108C100001462846FEF72EF9054694F93D00FEF779
:108C2000D5F81049FEF726F94FF07E51FEF71AF8F5
:108C300001464FF07E50FEF7D1F901462846FEF777
:108C400019F90949FEF70CF80849FEF713F9FEF780
:108C5000FDFAC0B270BD00BF6F12033A75021A3B35
:108C6000000044426F12033B0000C8419A995940EA
:108C700048B1036C3BB1436C2BB1806CB0FA80F00F
:108C80004009404270474FF0FF30704710B504462E
:108C90001046FFF7EDFF50B923788B4206D92170BB
:108CA00092F84D3043F0010382F84D3010BD4FF083
:108CB000FF30FBE72DE9F041344C264684460F4651
:108CC00090460FCEA0B06D460FC50FCE0FC50FCE8C
:108CD0000FC596E80F00403485E80F000FCC10ADAB
:108CE0000FC50FCC0FC50FCC0FC594E80F0085E85A
:108CF0000F006046FEF766F84FF08841FDF7B0FFC1
:108D000004464046FEF762F82149FEF7B3F82149D0
:108D1000FDF7A8FF20AB03EB870605461E4956F872
:108D2000800CFEF75BF94FF07E51FDF79BFF01468B
:108D30002846FEF79FF801462046FEF74FF94FF010
:108D40007E51FDF78FFF1449044656F8400CFEF79C
:108D500045F94FF07E51FDF785FF1049FEF78AF87F
:108D600005460120B840FEF72DF801462846FEF7DB
:108D700081F801462046FEF77DF801464FF07E500F
:108D8000FEF72CF920B0BDE8F08100BF68E80208CA
:108D90000000A0400080A7440000C842BD37063450
:108DA00037B510F0800F4A7B14BF002310239A427E
:108DB0000C4602D1002003B030BD4B730D6C4B68E4
:108DC00001220DF10701F320A84784F84C00A0B957
:108DD0009DF80720637B656C22F0100203F01003FE
:108DE00013438DF80730012263680DF107017320EA
:108DF000A84784F84C000028DCD06FF00100DAE7C7
:108E000037B54368056C044601220DF10701F320D4
:108E1000A84784F84C0030B99DF8073003F01003E0
:108E2000637303B030BD6FF00100FAE72DE9F0473E
:108E300086B01C4681460D4617460021102202A826
:108E4000019101F04BFE2046FFF712FF00283ED1B2
:108E5000B9F1000F3BD0D5B37B1E092B3AD8013DA9
:108E60000DF1040A09EB0708C14512D170B97A0067
:108E7000656C63689DF80400013A0DF10501A8478F
:108E8000002884F84C0018BF6FF0010006B0BDE860
:108E9000F087237B99F80060B3B92046FFF7E8FE1E
:108EA00018B921463046FFF77BFF99F8003003F0F0
:108EB0007F038AF8003015F8013F8AF8013009F184
:108EC00001090AF1020ACFE78AF80060F3E74FF0E0
:108ED000FF30DBE76FF00300D8E72DE9F0420646EC
:108EE00018460F4691461D46FFF7C2FE0446C8B914
:108EF000C1B12B7B3BB929463046FFF751FF0446F1
:108F000008B946F0800630466B682E6C4A463946F2
:108F1000B047002885F84C0018BF6FF001042046C8
:108F2000BDE8F0824FF0FF34F9E737B5E0238DF864
:108F30000630B62305468DF80730FFF799FE044644
:108F400080B92B7B8BB12B460DF1070101220DF16E
:108F50000600FFF76BFFAB6C6968044642F21070C5
:108F600098474CB1204603B030BD2846FFF748FF74
:108F700004460028F6D1E6E72B7B002BF2D12846E9
:108F8000FFF776FE04460028ECD12846FFF738FFAD
:108F90000446E7E710B58CB00446FFF7C6FF03466A
:108FA000002840F0AA80234601222146D020FFF766
:108FB00094FF0346002840F0A0802278612A40F008
:108FC0009F808DF804002346012201A9F020FFF7BD
:108FD00084FF0346002840F090809DF80430A36091
:108FE0001722234601A98A20FFF777FF03460028AE
:108FF00040F0838023460E220DF11B01E120FFF794
:109000006CFF0346002878D1234605220DF1290183
:10901000FFF763FF034600286FD19DF824109DF8E9
:1090200023209DF81D0042EA0122E2839DF80510ED
:109030009DF8042042EA012222849DF8062084F84B
:109040002220029A62629DF80C209DF80F1084F88D
:1090500028209DF80E2042EA012262859DF8111019
:109060009DF8102042EA0122A285BDF812209DF849
:10907000171052BAE2859DF8162042EA0122228694
:109080009DF819109DF8182042EA012262869DF889
:109090001A2084F834209DF81C2002F00F0141EAC8
:1090A000001121829DF81B10120942EA011262820E
:1090B000BDF81E20A282BDF82020E2829DF8222069
:1090C00022769DF827209DF8261062769DF82520AF
:1090D00042EA012262839DF8282022779DF82B2006
:1090E000C2F3011284F83C209DF8292084F83D2029
:1090F0009DF92D20121184F83E2018460CB010BDA9
:109100006FF00203F9E773B5742306460D468DF838
:1091100007302B4601220DF106017420FFF7DDFE1A
:109120000446B8B99DF80620930716D022F0030232
:109130008DF806202B460DF1060101220DF10700E6
:10914000FFF774FEAB6C6968044642F210709847F2
:10915000002CDED0204602B070BD002EFAD022F0E6
:10916000030206F0030632438DF806202B46012247
:109170000DF106010DF10700FFF758FE0446E9E77F
:1091800013B50B46044660B101220DF107017420AE
:10919000FFF7A3FE9DF8073003F00303237002B02E
:1091A00010BD4FF0FF30FAE770B5514B86B0044662
:1091B00018681B7902908DF80C300DF10700002320
:1091C0000D4604938DF81430FFF7DAFF02460028AD
:1091D00040F089802946FFF796FF0646024664B9AB
:1091E0004FF0FF329DF8070020B11AB92946FFF76A
:1091F0008AFF0246104606B070BD0028F2D1052253
:109200009DF808002B4604A9FFF767FE85F84D601E
:1092100002460028E6D12A460721E01CFFF736FD6A
:1092200002460028DED12A460521601CFFF72EFDEC
:1092300002460028D6D12A460521A01CFFF726FDAC
:1092400002460028CED12A4605212046FFF71EFD02
:1092500002460028C6D12A460821201DFFF716FD28
:1092600002460028BED1E3789DF8142061789B0067
:1092700022F01C0203F01C0313435AB29DF8133072
:1092800003F01F0343EA4113A178890001F01C0198
:1092900023F01C030B438DF8133021789DF8113017
:1092A00001F0070123F007030B4321798DF81130FA
:1092B0009DF81030082912BF00200120002102F083
:1092C0001F0203F07F0342EA411243EAC0138DF804
:1092D00014208DF8103005222B4604A902A8FFF7B0
:1092E000A5FD02467EE7002C7FF47CAF78E700BF47
:1092F000B0ED020873B51D4B064618689B880090B8
:10930000ADF804300C4611B9002002B070BD052143
:10931000601CFFF7BBFC0028F6D10521A01CFFF75D
:10932000B5FC0028F0D105212046FFF7AFFC00284E
:10933000EAD1637802AA1344A27813F8083C02A980
:109340000A44022E12F8080C22780A44034412F848
:10935000080C184440F2AB7303FB00F00BBF00F5A0
:10936000865000F5A55005300D30CEE7E8E802083C
:109370002DE9F04FB5B01D4622AB019204464822BC
:1093800018460F46002101F0A9FB28AB0A900B9369
:1093900028462EAB0C93FFF76BFC064628B14FF026
:1093A000FF34204635B0BDE8F08F002FF7D0012CF8
:1093B00040F0D080159001460D2216A801F08EFBDA
:1093C00005262B46112215A91D20FFF786FD9DF8C5
:1093D0005520BA709DF8562002929DF857200392AE
:1093E0009DF8582004929DF85920059204469DF856
:1093F0005A209DF8540006929DF85C20079200F0D8
:1094000080039DF85D20089200F00F009DF8612018
:1094100078700992AA689DF862A09DF864809DF812
:109420005B909DF863B0012A0CBF08F030020AF08F
:10943000300213433B701B0675D5002C79D12B46A7
:109440000122F91C5A30FFF748FD0446002870D16C
:10945000787850302B460122391DC0B2FFF73DFD10
:109460000446002865D1787864302B460122791DA6
:10947000C0B2FFF732FD044600285AD1069B4FEADE
:10948000191040EA0310059B294640EA0330FFF714
:10949000ABF9049BB8601809039B40EA0310029BD8
:1094A000294640EA0330FFF7EDF9DDE90723F860CC
:1094B000294643EA0220FFF7C5FAAB683861012B61
:1094C00025D14FEA98134FF4802008F00F0820FAB6
:1094D00008F043EA8B0BFDF775FCB049FDF7CAFCB9
:1094E000ABF5007B0BEB4B0B04460BF58050FDF707
:1094F0006DFC01462046FDF771FD786197F900305B
:10950000002BB5BF01260026002402241CE0099B85
:1095100095F93E204FEA9A100AF00F0140EA8300C5
:10952000FFF7C8FBE9E724B9AB6C696842F2107039
:109530009847013E16F0FF0604D0002C3FF441AFDF
:10954000002601E0002CD9D0019B002B3FF427AF6F
:109550001E7026E7023C012C00F21E810146159088
:109560002F2216A801F0BAFA1A2231460EA80D963B
:1095700001F0B4FA2B46332215A91D20FFF7ADFCEC
:1095800004468246002840F09C802B461E220DA9EE
:109590005020FFF7A2FC15AE0446002840F0918051
:1095A0000AAB96F8039053F82A80737888F8023053
:1095B000B378B079727A317896F810B04FEA091919
:1095C00049EA0339337949EA13197379000140EA0A
:1095D0000330F37940EA13130293337AF07B04905B
:1095E00042EA0322A868737B0393B37B012801F04E
:1095F0000F0C21F07F0118BF03F0200E49B20CBF01
:109600000BF0200E41EA0E01CDE9052318BF03F04F
:10961000100E34AB08BF41EA0E0188F801C008BF44
:109620000BF0100E9C4441EA0E0188F800101CF863
:109630009C1C88F804101CF8921C88F803101CF875
:10964000881C88F8051002982946FFF7CDF82946AE
:10965000C8F808004846FFF715F9059AC8F80C0045
:1096600029461046FFF7EEF9AA68069BC8F81000D5
:10967000012A5ED1049B4FEA9B1949EA83090BF04A
:109680000F004FF4802323FA00F0FDF79BFB4349C2
:10969000FDF7F0FBA9F5007909EB4909834609F5C7
:1096A0008050FDF793FB01465846FDF797FC0AF101
:1096B000010ABAF1030FC8F8140006F111067FF48D
:1096C0006FAF00231E46002C4CD10AAA52F823206B
:1096D00092F90020002AB8BF013603F10103B8BF98
:1096E000F6B2032BF1D10AA94FF0010C62460868CB
:1096F0000AAB90F900E053F82250BEF1000F95F943
:10970000003021DA002B21DA90F802E0AB78A3EBED
:109710000E039BB203F1020E1FFA8EFEBEF1010F83
:1097200002D91BB2022B11DD0AAB0D6043F82200F7
:109730000CE0980903F00F01039B95F93E2040EAE5
:109740008300FFF7B7FAB2E7002BEDDB0132D3B2AB
:10975000032BCCD1BCF1020F01F1040102D04FF078
:10976000020CC3E74FF0000E4FF0180884B90AABA3
:1097700008FB0E7553F82EC0BCE80F000FC59CE81F
:1097800003000EF1010EBEF1030F85E80300EED1D8
:10979000002E08BF0224D7E60124D5E60024744930
:1097A0002DE9F04F93B047F2701306461746ADF817
:1097B00014300D46002900F08D8011460020FFF77F
:1097C000A2FC0446002840F0F4808F4A6E23106803
:1097D00051688DF8133006AB03C312891A8009ABA8
:1097E00003C31A800CAB03C31A800FAB03C3022E52
:1097F0001A800DF118090DF1240A0DF13C0B00F04F
:10980000A180032E64D0012E40F0FB805A2368888B
:109810008DF818303946FFF7A5F964238DF83030FC
:10982000AB888DF82400B3F57C6F4FD23F2BE2B2AA
:1098300004F1010448D803EB8213DBB28DF83C300D
:109840004FF000083B46324651464846FFF7EEFAD5
:109850000446002840F0AD803B4632460FA90CA8D4
:10986000FFF7E4FA0446002840F0A3803B460222BA
:109870000FA97020FFF731FB0446002840F09980C3
:109880002A78012A40F0BA80BB68012B08BF022267
:109890009DF83C3023F0080343EAC4049DF83D30B2
:1098A0008DF83C4023F00F0343EA080323F0300314
:1098B00043EA02138DF83D3002223B460FA905A86A
:1098C000FFF7B4FA044674E09B08AFE7FF23B5E75F
:1098D000EB6813B94FF0FF346BE0AA68002AF9D0A7
:1098E0002E7C5FFA84F8464501D8B046AAE708F115
:1098F0005A0109F80410394632F814000193009215
:10990000FFF730F90CAB08F1640803F804800AF89B
:109910000400019B009A33F81410B1F57C6F0FD24C
:1099200000203F295FFA80FC00F1010006D801EB1E
:109930008C11C9B20BF804100134D2E78908F0E7A2
:10994000FF21F7E7EB68002BC4D0AA680092002A39
:10995000C0D06A8A2E7CCDF804B0002A08BF032448
:109960004FF000085FFA88FB5E4526D840F282730C
:109970009A4241D84FF47A735A4340F2DD13B2FB56
:10998000F3F2002392B23F2AD9B203F1010331D896
:1099900002EB8112D2B28DF8122054B93B4601225B
:1099A0000DF112010DF11300FFF740FA04460028F3
:1099B0009BD0204613B0BDE8F08F0BF15A0109F897
:1099C0000810CDE90232009B394633F81800FFF742
:1099D000C9F80CAB0BF1640B03F808B00AF80800E7
:1099E000029B019A33F8181008F80210039A08F144
:1099F0000108B7E79208C6E7FF22CCE70246012438
:109A000046E70124D5E700BFEEE8020842600022E5
:109A1000027220220170C2607047037A10B50446BA
:109A20005BB12178606805F03DFB6068012105F0BD
:109A300045FBB0FA80F0400910BD012100F003F8A9
:109A40000028EED1F8E738B5044640680D4605F029
:109A5000E9FA0120207225B12046BDE83840FFF721
:109A6000DCBF38BD2DE9F843DDE908961F46C36821
:109A7000154632449A420446884602D90020BDE881
:109A8000F8830178406805F00DFB7EB960680368D3
:109A90002A465B68414698478542EFD1606839465F
:109AA00005F00CFBB0FA80F04009E8E7B9F1000FCF
:109AB000ECD06068036832465B6849469847B0421C
:109AC000DCD1E3E72DE9F041154604460F46D2B25A
:109AD0000178406805F0D4FA85420BD10026B542E2
:109AE00006F1010809D9606803685B699847B855B1
:109AF0004646F4E70020BDE8F0810120FBE72DE9B0
:109B0000F84307468846164699460025B54212D2C4
:109B1000FA68741B944228BF1446331BAB4294BFAF
:109B20004B460023224608EB05013846FFF7CAFFE3
:109B300010B12544EAE70120BDE8F88373B51D465E
:109B40000023CDE900339DF81C30069E0446FFF744
:109B500089FF40B1012332462946204602B0BDE8C4
:109B60007040FFF7CCBF02B070BD38B5044690F925
:109B70000E00411C07D00121C0B205F05FFCA07BA4
:109B8000012105F072FC256835B1284605F00CF975
:109B9000012084F8340038BD0121E07B05F04EFC43
:109BA000637BE07B012B94BF2946012105F05DFC1E
:109BB00094F91000421C07D00121C0B205F03EFC10
:109BC000207C012105F051FC94F91100431CDFD0E9
:109BD0000021C0B205F032FCDAE700002DE9F74FB2
:109BE000044600680E46134620B103B0BDE8F04FAE
:109BF00005F025B9227BA068494FB7FBF0F7002A92
:109C00000A780CBF4FF0010B4FF0800B1BEA020FDC
:109C10000B440CBF4FF001094FF00009FFB2019354
:109C2000019BB34279D096F800A05D464FF0000842
:109C300017B138460FF0A3F8637BA26913F0FD0F4C
:109C400042D194F91030591C11D01AEA050014BF02
:109C5000012300234B450AD06369D4F824C0196856
:109C600000282CD041EA0C0119604FF0010911685D
:109C7000E36A0B43136017B138460FF080F894F98C
:109C80001130013306D0E3691A68A36A1A4218BF7B
:109C900045EA0808A169E36A0A6822EA03030B603F
:109CA00094F91130013318BF86F80080237B002B14
:109CB00031D16D00EDB2002DBAD10136B0E721EA05
:109CC0000C0119608146D2E71168E36A0B43136007
:109CD00017B138460FF053F894F91030013308D01B
:109CE0006369616A1A681AEA050F14BF0A438A4356
:109CF0001A60A169E36A0A6822EA03030B6094F917
:109D000011300133CCD0E3691A68A36A1A4218BF34
:109D100045EA0808C4E76D08CDE703B0BDE8F08F59
:109D200020A1070007B501228DF807100DF10701EA
:109D3000FFF754FF9DF8070003B05DF804FB0346EE
:109D4000006820B15B6893E8060005F03BB87047F7
:109D5000006808B105F065B8704790F90E00431C23
:109D600003D0C9B2C0B205F080BB704710B504463D
:109D7000FFF7E5FF20460021BDE81040FFF7EDBFEB
:109D800010B501210446FFF7E8FF2046BDE810406A
:109D9000FFF7DEBF2DE9F0411C4606460D4617468B
:109DA000FFF7E4FF069B04EB0308444508D12F446A
:109DB000BD420BD015F8011B3046FFF7B3FFF7E7A4
:109DC00014F8011B3046FFF7ADFFEEE73046FFF712
:109DD000D7FF0120BDE8F0812DE9F0410D4617467F
:109DE0009DF81C8006461C46FFF7C0FF2F44BD426D
:109DF0000AD1069BE518AC420CD041463046FFF72D
:109E000091FF04F8010BF6E715F8011B3046FFF748
:109E100089FFECE73046FFF7B3FF0120BDE8F08192
:109E2000704710B5044602F0B3FF204610BD000095
:109E300010B5064C0273064A8261C0E900414FF436
:109E4000807200218160828310BD00BFC0ED0208D6
:109E500000093D002DE9F041D0F8088004460D4688
:109E600017461E46B8F1000F1BD0D0E90612404637
:109E700004F0A8FF207C002105F0F7FA45F08001EE
:109E8000A06804F0E0FFA0683246394604F0D7FF2E
:109E9000207C012105F0E9FAA06804F0C2FF01204E
:109EA00021E0017B406805F0FDF860680368294601
:109EB0001B6898476068414605F000F9054680B97F
:109EC000217B6068F2B205F0E4F886420DD13E4491
:109ED000B742E4D0606803685B69984707F8010BF4
:109EE000F6E74FF0FF30BDE8F0812846FBE707B505
:109EF00001230DF10702FFF7ADFF01280CBF9DF80C
:109F000007004FF0FF3003B05DF804FB70B5044666
:109F100080680E461546C0B1D4E9061204F052FF1F
:109F2000207C002105F0A1FA3146A06804F08BFFE7
:109F30002946A06804F087FF207C012105F095FAEE
:109F4000A06804F06EFF012070BD217B606805F001
:109F5000A9F86068036831461B6898476068036821
:109F600029461B6898476068012105F0A7F8B0FAF8
:109F700080F04009E8E7836810B5044663B11846ED
:109F800004F018FF207C002105F06FFA207C0021EE
:109F9000BDE8104005F052BA18221146FFF7B6FF8F
:109FA00060680121BDE8104005F088B8836810B5ED
:109FB0000446B3B1007C012105F040FA207C012168
:109FC00005F053FAA06804F0EFFE0F212046FFF7DA
:109FD0008EFF152815D02046FFF7CDFF6FF0030048
:109FE00010BD406805F01EF8217B606805F05AF846
:109FF0006068012105F062F80028E6D06FF00200E9
:10A00000EEE70C212046FFF772FFC0B2552807D0BB
:10A01000AA2805D02046FFF7AEFF6FF00400DFE767
:10A020000020DDE770B504460D461646FFF75FFFDA
:10A03000012303FA06F2024329462046D2B2BDE8C4
:10A040007040FFF763BF70B504460D461646FFF734
:10A050004EFF012303FA06F220EA020229462046B7
:10A06000D2B2BDE87040FFF751BF07221821FFF7B9
:10A07000EABF10B50446FFF7F8FF20460722BDE807
:10A0800010401921FFF7CEBF07221821FFF7CABFE2
:10A0900006221821FFF7C6BF38B50D461821044621
:10A0A000FFF725FF042D00F0E70204D0082D0BD1A7
:10A0B00042F0100201E042F0080225752046182106
:10A0C000BDE83840FFF722BF02232375F6E738B515
:10A0D0000C461B210546FFF70AFF04F00F0400F0B1
:10A0E000F002224328461B21BDE83840FFF70EBF8F
:10A0F00070B5154604460E46FFF7BBFF32200EF042
:10A1000029FE2046FFF7B1FF2046FFF7C1FF314689
:10A110002046FFF7C1FF20462946FFF7D8FF002061
:10A1200070BDF7B5074615461C460E4691B38AB377
:10A1300083B306236A461946FFF78CFE68B33F7D5A
:10A14000BDF900007843FCF7D5F900224FF07C53AD
:10A15000FCF73AFAFCF730FD3060BDF902007843B5
:10A16000FCF7C8F900224FF07C53FCF72DFAFCF7FE
:10A1700023FD2860BDF904007843FCF7BBF90022F9
:10A180004FF07C53FCF720FAFCF716FD206000200E
:10A1900003B0F0BD6FF00100FAE74FF0FF30F7E7D2
:10A1A0007047000008B529230370024804F03AFF05
:10A1B000012008BDDC1E00202DE9F04718464FF6AF
:10A1C000FF739842DDE908A401D09A4506D1002228
:10A1D0000023C4E900230020BDE8F0870139C9B29B
:10A1E000062998BF264D02F1FF32D2B294BF6D56B8
:10A1F0000125062A00EB0A0330D8224901EBC202EE
:10A20000D2E9008953452ED9FCF764F918A3D3E9A4
:10A210000023FCF7D9F9064650460F46FCF75AF9D9
:10A2200015A3D3E90023FCF7CFF902460B463046CD
:10A230003946FCF713F8064628460F46FCF75AF94C
:10A2400002460B4630463946FCF7E8FA42464B4692
:10A25000FCF7E4FAC4E900010120BDE7DFF828902B
:10A260004FF00008CEE700220023C4E90023F3E703
:10A270004FAF94658863FC3FA857CA32C4B1F13F21
:10A28000C8ED0208D0ED02080000F03FF8B50D4D12
:10A2900004460F4601782846164604F003FF394667
:10A2A000284604F0A7FE3146284604F0A3FE01210B
:10A2B000284604F003FFC0B26070B0FA80F0400995
:10A2C000F8BD00BFDC1E002001228021FFF7DEBFA9
:10A2D00010B414460A1F012A0ED9072928BF0021ED
:10A2E0008900CAB20CB142F002020BB142F0010285
:10A2F00010BC8021FFF7CABF0021F1E7062988BF03
:10A300000021C900C9B2062A88BF00220A4385215C
:10A31000FFF7BCBF70B504460E46017814481546D9
:10A3200004F0C0FE3146124804F064FE10480121DA
:10A3300004F0C4FEC0B2607008B1002070BD217886
:10A340000B48022204F0A8FE094804F033FE02285C
:10A35000F3D1074804F038FE0446054804F034FE03
:10A36000000280B250FA84F42C600120E6E700BFBE
:10A37000DC1E002038B515460A468A210446FFF740
:10A38000C9FF30B12A4620468821BDE83840FFF792
:10A39000C1BF38BD03F0F0BC03F0F3BC7047000050
:10A3A00070B5002386B0CDE904334FF0B0420F4DB5
:10A3B000D16C41F00201D164D26C039302F002022D
:10A3C0004FF48056009201A92846CDE90163009A16
:10A3D00011F000F93146284611F01CFA31460446C6
:10A3E000284611F0A3F9204606B070BD00040048CD
:10A3F0000D2070474FF0B04382B0DA6C0243DA644C
:10A40000DB6C18400190019B02B070472DE9F041D0
:10A4100086B01422002101A800F060FB0220FFF7A3
:10A42000E9FF144D144F0420FFF7E4FF4FF480764A
:10A4300001230024CDE9016301A903232846CDE9C6
:10A4400003434FF4005811F0C5F801A93846CDF880
:10A45000048011F0BFF822464146384611F0E0F979
:10A4600028462246314611F0DBF9204606B0BDE809
:10A47000F08100BF0004004800080048032810B520
:10A480000ED8012810D868B902460B484FF48071E5
:10A4900011F0C6F9002209484FF4005111F0C0F93B
:10A4A000002010BD0122F0E7002203484FF4807124
:10A4B00011F0B6F90122EEE7000400480008004858
:10A4C00002207047002070470120704710B59AB0F5
:10A4D0004822002108A800F001FB1822002102A850
:10A4E00000F0FCFA12F058F84FF0B0420024D2F815
:10A4F000903023F01803C2F89030D2F8003423F4DF
:10A50000C06343F40073C2F80034D2F800341194ED
:10A5100003F4C06301934FF48072019B0C922E23CD
:10A520004022089381230B930D920123B02208A8A7
:10A53000CDE90E3410931292139412F07FF908B102
:10A5400003F044FE4F23022102A8CDE90234CDE9F5
:10A550000444CDE9064412F011FC08B103F036FEC4
:10A560001AB010BD13B50378082B11D8DFE803F03B
:10A57000128287108E8E05109200047920460DF00D
:10A5800083FA20460DF02AFA002120460DF084FAC5
:10A5900002B010BD00200DF077FA012839D101205A
:10A5A0000DF072FA012804D001200FF01FF80028E6
:10A5B0003DDC02200DF068FA0128E9D002200FF0FE
:10A5C00015F80028E4DD012201A902200EF0D8FED2
:10A5D00002200DF059FA0028F0D102200EF0E4FF1D
:10A5E00000283FD19DF8041002200DF063F9E5E743
:10A5F000012201A900200EF0C3FE00200DF044FA54
:10A60000044630B90EF0D0FF48B99DF804100DF0A3
:10A6100051F900200EF0EAFF0028E9DCBFE701282D
:10A62000F7D19DF8041020460EF016FFF1E7012245
:10A6300001A910460EF0A4FE01200DF025FA002815
:10A64000B2D101200EF0B0FF28B99DF8041001200E
:10A650000DF030F9A8E70128A6D19DF804100EF0FE
:10A66000FBFEA1E70128A9D19DF8041002200EF0FD
:10A67000F3FEA3E717F044FF05F0B2FF88E7074BAE
:10A680001B68002B84D04068984781E740680FF032
:10A69000BFF87DE740680EF0DAFC79E7106700202C
:10A6A00030B5284B284A9A6085B00FF029F9FFF79A
:10A6B0000DFF4FF0B0430B209A6C42F004029A64F5
:10A6C0009A6C02F004020392039A9A6C42F001021F
:10A6D0009A649B6C002203F0010311460293029BD3
:10A6E0000FF076FD0B200FF0A5FD0FF085F80EF0B2
:10A6F000D9FA0DF083FA00240146054623460322C9
:10A700000120CDE900440EF07DFD234603222946B9
:10A710000220CDE900440EF075FD0DF01DFB06F0A2
:10A720009DFDE5B228460DF0AFF910B928460DF0B1
:10A7300055F90134032CF4D105B0BDE830400FF0D9
:10A740003FB800BF00ED00E0006000080FF046B821
:10A75000F7B5FFF7A5FF4FF0B0432E4EDA6C2E4C45
:10A7600042F00202DA64DB6C03F002030193019B06
:10A7700008F0CEFF294B341B1427474300251C4407
:10A78000BD4223D302F020FBFFF70AFE98B3244812
:10A7900004F0CAFE234B24481A68244B196804F0BD
:10A7A000C3FE23480EF0B0FD05F05EF9012824D069
:10A7B000022824D010B91F480EF0A6FD1E4C0FF041
:10A7C0000DF82378EBB902F001FBF8E76A460421A3
:10A7D00060190EF0DBFA69463246042312F801CB09
:10A7E00011F8010B844518BF02F8010C013BF5D1AB
:10A7F00004350436C4E71148CAE71148DCE71148BC
:10A80000DAE70DF087F90028D9D000200EF0A4FC7B
:10A81000D5E700BFB0030020000000204823030854
:10A8200008EE0208800000201EEE020898000020BA
:10A830002EEE020842EE0208B80F002013EE0208C6
:10A840004EEE020859EE0208054808B508230360D9
:10A8500013F094F918B1BDE8084003F0B7BC08BD87
:10A86000A85F00204FF0B04307B55A6E42F00102D6
:10A870005A665B6E002203F00103019311463220F9
:10A88000019B0FF0A5FC322003B05DF804EB0FF044
:10A89000D1BC0000024B9868024BC043186070475F
:10A8A00000280040BC0F0020014B1868704700BF13
:10A8B000BC0F0020034B044A9B681068DB43181A46
:10A8C000704700BF00280040BC0F0020034B1878E1
:10A8D00010B1034B9868C043704700BFB90F002008
:10A8E000002800400320704708B501464FF47A72F3
:10A8F0000023C003490CFCF7C9FC08BD4FF47A7271
:10A90000A0FB0223D00B40EA4340704710B5074B31
:10A91000074C0122DA654FF48071204612F02CFBBF
:10A920004FF0FF332363002010BD00BF002800401C
:10A93000F461002002460021014812F032BD00BF40
:10A94000F461002002460121014812F02ABD00BF37
:10A95000F461002010B58CB02C220021044601A81F
:10A9600000F0BCF8FFF7D2FF0C4B1868002304443A
:10A97000089306934FF00053E4430793084802946A
:10A980004FF48073012201A90B9312F00BFC08B164
:10A9900003F01CFC00200CB010BD00BFBC0F002059
:10A9A000F46100200C4B70B59C68064602210B48F0
:10A9B00012F0FEFCE44300221219C2F30E044FF41D
:10A9C0007A71A4FB014540F10003E40BD00B348005
:10A9D00040EA434070BD00BF00280040F461002001
:10A9E0000148002112F0E4BCF4610020014801217B
:10A9F00012F0DEBCF4610020F8B5114E3578E5B9EF
:10AA0000104C2A4629464FF0FF372846276303F0AB
:10AA100079F8FFF77BFF4FF48071204612F0ACFA13
:10AA20002046276312F068FC2A460221204612F0D5
:10AA3000B8FCFFF72FFF012333700020F8BD00BFE3
:10AA4000B90F0020F461002016F01ABB10B5064CB7
:10AA50000221204612F0ACFC0221421C2046BDE837
:10AA6000104012F09EBC00BFF46100200B4601466E
:10AA7000184600F001B8000010B50446044813461B
:10AA800020B10A4602202146AFF3008010BD00BF6E
:10AA90000000000070B50D4D0D4C641BA410002685
:10AAA000A64209D10B4D0C4C23F0D2FE641BA4101E
:10AAB0000026A64205D170BD55F8043B98470136E3
:10AAC000EEE755F8043B98470136F2E728230308E0
:10AAD00028230308282303084023030802440346CD
:10AAE000934200D1704703F8011BF9E72DE9F047C5
:10AAF00088B0002B1F461446B8BF03F10043129ADA
:10AB0000109DDDF84CA0B6BF1F4600232D23137007
:10AB1000149B23F02008B8F1460F05D0B8F1450F7B
:10AB200000D10135022300E0032307AA049206AAFC
:10AB3000CDE902A2CDE9003522463B4600F004FDF6
:10AB4000B8F1470F064602D1119BDB0722D5B8F1B9
:10AB5000460F06EB050910D13378302B0AD10022BD
:10AB6000002320463946FBF797FF18B9C5F10105C8
:10AB7000CAF80050DAF80030994400220023204639
:10AB80003946FBF789FF08B1CDF81C903022079BAE
:10AB90004B4507D3079B159A9B1B3046136008B0A3
:10ABA000BDE8F087591C07911A70F0E7F7B5034626
:10ABB0000029B8BF494203F8022BB4BF2D222B2233
:10ABC000092942702ADD0DF10704A4460A27A6468A
:10ABD0000A4691FBF7F607FB16153035632A04F198
:10ABE000FF340EF8015C3146F1DC3031AEF1020584
:10ABF00004F8011C441C294661450AD30DF10902E1
:10AC0000A2EB0E02654588BF00221344181A03B058
:10AC1000F0BD11F8012B04F8012FEDE7302330319E
:10AC20008370C170031DF1E72DE9F04F91B00C4620
:10AC3000DDF8688016461F46054601F057FA03689E
:10AC400009931846FBF7A6FA00230E93D8F80030B4
:10AC50000A90073323F0070303F1080294F81890D1
:10AC6000D4F800B0C8F80020D3E90023C4E91223C7
:10AC7000D4E9128A2AF000430B930B999C4B4FF0B6
:10AC8000FF324046FBF73AFF70BB994B0B994FF0F0
:10AC9000FF324046FBF714FF30BB00220023404642
:10ACA0005146FBF703FF10B12D2384F84330914B3D
:10ACB0009148B9F1470F94BF98468046032323611A
:10ACC0002BF0040323604FF0000A009733460FAACD
:10ACD0002146284600F0D2F9013040F08F804FF035
:10ACE000FF3011B0BDE8F08F424653464046514612
:10ACF000FBF704FF40B1BAF1000FBCBF2D2384F86D
:10AD000043307E487E4BD4E763685A1C09F0DF016C
:10AD100042D106236360002206920EAACDE9049276
:10AD20000DAA4BF4806303920DF13302CDE9013299
:10AD30002360636800934246534628460B91FFF711
:10AD4000D5FE0B99472980460D9908D1C81C02DB16
:10AD50006368994240DDA9F102095FFA89F9B9F106
:10AD6000650F1FD801394A4604F150000D91FFF7D5
:10AD70001DFF0E9A1318012A8246236102DC226805
:10AD8000D20701D5013323619DF83330002B9CD0CD
:10AD90002D2384F8433098E74729BCD1002BBAD142
:10ADA0000123B7E7B9F1660F18D1002963680BDDFD
:10ADB000216113B92268D00702D501330B44236106
:10ADC000A1654FF0000ADFE713B92268D20701D569
:10ADD0000233F4E70123F2E74FF067090E9B994233
:10ADE00005DB23682161D807EAD54B1CE7E700297A
:10ADF000D4BFC1F1020201221344E0E723685A05DF
:10AE000007D42369424631462846B84701302BD142
:10AE100065E7B9F1650F40F2DC80D4E91201002248
:10AE20000023FBF739FE002833D0364A0123314690
:10AE30002846B84701303FF452AFDDE90D239A426E
:10AE400002DB2368D8070FD5DDE909233146284600
:10AE5000B84701303FF443AF4FF0000804F11A093E
:10AE60000E9B013B434509DC23689B0700F10181F0
:10AE7000E0680F9B9842B8BF184632E701234A4664
:10AE800031462846B84701303FF429AF08F10108A0
:10AE9000E6E70D9B002B37DC1A4A01233146284692
:10AEA000B84701303FF41BAFDDE90D23134302D156
:10AEB0002368D907D8D5DDE9092331462846B847A4
:10AEC00001303FF40CAF4FF0000904F11A0A0D9B5A
:10AED0005B424B4501DC0E9B94E701235246314611
:10AEE0002846B84701303FF4FAAE09F10109EEE710
:10AEF000FFFFEF7F0DF0020811F0020819F00208C1
:10AF000015F002081E1D03080E9AA36D9A42A8BFF1
:10AF10001A46002A914637DC4FF0000B29EAE979FE
:10AF200004F11A02D4F858A0AAEB09035B4533DCFC
:10AF3000DDE90D239A423BDB2368DA0738D40E9A09
:10AF40000D99A2EB0A03A2EB01099945A8BF994606
:10AF5000B9F1000F34DC4FF0000829EAE97904F177
:10AF60001A0ADDE90D239B1AA3EB090343457FF77A
:10AF70007BAF0123524631462846B84701303FF4A3
:10AF8000AEAE08F10108ECE71346314642462846CA
:10AF9000B8470130C0D1A2E60123314628460B92C2
:10AFA000B84701303FF49BAE0B9A0BF1010BB9E7A8
:10AFB000DDE9092331462846B8470130BFD18EE686
:10AFC0004B4608EB0A0231462846B8470130C2D149
:10AFD00085E60E9A012A01DCDB0737D501234246BC
:10AFE00031462846B84701303FF479AEDDE9092300
:10AFF00031462846B84701303FF471AED4E912011A
:10B0000000220023FBF748FDD8B90E9B08F101028E
:10B01000013B31462846B84701300ED15FE6012397
:10B020004A4631462846B84701303FF458AE08F149
:10B0300001080E9B013B4345F1DC534604F15002ED
:10B04000E1E64FF0000804F11A09F2E70123424655
:10B05000DFE701234A4631462846B84701303FF42E
:10B060003EAE08F10108E3680F995B1A4345F0DC36
:10B07000FEE64FF0000804F11909F4E72DE9F04766
:10B08000164699468A680B69DDF820809342B8BF5E
:10B090001346336091F8432007460C460AB101334A
:10B0A00033602368990642BF3368023333602568F2
:10B0B00015F0060506D104F1190AE36832689B1AF7
:10B0C000AB4226DC94F84320131E226818BF0123EC
:10B0D00092062BD404F1430249463846C04701305A
:10B0E0001ED02368E568326803F00603042B08BF0E
:10B0F000AD1AA36822690CBF25EAE57500259342C5
:10B10000C4BF9B1AED1800261A34B5421AD100208C
:10B1100008E00123524649463846C047013003D172
:10B120004FF0FF30BDE8F0870135C6E7E1185A1C43
:10B13000302081F84300224494F8451082F84310EF
:10B140000233C7E70123224649463846C04701304B
:10B15000E6D00136D9E700002DE9FF470C469146BD
:10B16000277E0C99782F80469A4604F1430207D82F
:10B17000622F0AD8002F00F0D880582F00F0A3804B
:10B1800004F1420684F842703AE0A7F16303152BFC
:10B19000F6D801A050F823F0F1B1000805B200087C
:10B1A00081B1000881B1000881B1000881B10008B7
:10B1B00005B2000881B1000881B1000881B1000822
:10B1C00081B1000811B3000835B20008F3B20008DD
:10B1D00081B1000881B1000833B3000881B10008D3
:10B1E00035B2000881B1000881B10008FBB2000847
:10B1F0000B681A1D1B680A6004F1420684F842308D
:10B200000123A3E0256808682E0600F104030AD58F
:10B2100005680B60002D03DA2D236D4284F843305E
:10B220005E480A2319E015F0400F05680B6018BF4F
:10B230002DB2EFE70B682568181D0860280601D5B8
:10B240001D6802E06906FBD51D8854486F2F0CBFAE
:10B2500008230A23002184F843106668A660002EA4
:10B26000A2BF216821F0040121600DB9002E4DD04C
:10B270001646B5FBF3F103FB1157C75D06F8017DD8
:10B280002F46BB420D46F4D9082B0BD12368DF07AC
:10B2900008D5236961689942DEBF302306F8013C76
:10B2A00006F1FF36921B2261CDF800A04B4603AA9F
:10B2B00021464046FFF7E2FE01304CD14FF0FF300F
:10B2C00004B0BDE8F087354884F8457023680E68FF
:10B2D0001F0656F8045B0E6014D5D90744BF43F02F
:10B2E000200323601DB9236823F02003236010236B
:10B2F000B0E7236843F0200323607823284884F8CC
:10B300004530E3E75E0648BFADB2E6E71646BBE769
:10B310000B68266860691D1D0D6035061B6801D528
:10B32000186002E07106FBD51880002323611646E1
:10B33000BAE70B681A1D0A601E6862680021304671
:10B34000FAF736FF08B1801B606063682361002351
:10B3500084F84330A8E72369324649464046D0473F
:10B360000130ABD023689B0713D4E068039B98425D
:10B37000B8BF1846A4E70123324649464046D047A5
:10B3800001309BD00135E36803995B1AAB42F2DCD4
:10B39000EBE7002504F11906F5E700BF1DF00208F0
:10B3A0002EF002080CB430B5174B0C1E1D689DB072
:10B3B00008DA8B232B604FF0FF301DB0BDE8304022
:10B3C00002B070474FF40273ADF8143014BF04F1AB
:10B3D000FF332346049307934FF6FF7302900690C2
:10B3E000ADF81630209A21AB02A92846019301F04E
:10B3F000BBFA431CBCBF8B232B60002CDDD0029B0F
:10B4000000221A70D9E700BF9C00002010B5013956
:10B41000034632B111F8014F03F8014B013A002CF9
:10B42000F7D11A440021934200D110BD03F8011B4B
:10B43000F9E72DE9F74F03690C69A3420746C0F20B
:10B440008180013C01F1140800F1140505EB84032F
:10B45000019358F8243055F8242001339A424FEADA
:10B46000840B08EB8409B2FBF3F631D34FF0000EE6
:10B470004046AC46F24650F8042B93B206FB03E379
:10B480004FEA134E9BB2AAEB0303120CDCF800A0A8
:10B4900006FB02E213FA8AF34FEA124E1FFA82FA0F
:10B4A000DCF80020CAEB124202EB23429BB243EAD3
:10B4B000024381454CF8043B4FEA224ADBD255F85F
:10B4C0000B302BB9019B043B9D421A462ED33C61A5
:10B4D000384601F056F8002824DB013628464FF0A4
:10B4E000000C58F8042BD0F800E093B2ACEB030347
:10B4F000120C13FA8EF3C2EB1E4202EB23429BB2F4
:10B5000043EA0243C14540F8043B4FEA224CE8D2EB
:10B5100055F8242005EB840322B9043B9D421A46CA
:10B520000AD33C61304603B0BDE8F08F1268043B9B
:10B53000002ACCD1013CC7E71268043B002AF0D1B5
:10B54000013CEBE70020EEE72DE9F04F446A99B0AB
:10B5500016461F46CDE90467DDF8948005463CB9E0
:10B56000102000F0C7FDC0E9014468620460C460B7
:10B570006B6A196851B15A684A60012393408B6025
:10B58000284600F009FE6B6A00221A603B1EB9BF14
:10B5900023F0004305930023C8F80030DDF8149031
:10B5A000A74BBCBF0122C8F8002033EA090319D118
:10B5B000249A42F20F731360C9F31303334300F06C
:10B5C0006D85269B53B99F4B23E09F4B0393083314
:10B5D000269A1360039819B0BDE8F08F994B039336
:10B5E0000333F5E7DDE90434CDE90C34DDE90C0182
:10B5F00000220023FBF750FA804660B1249A012311
:10B600001360269B002B00F04685904B269A136012
:10B61000013B0393DEE716AB019317AB009328467B
:10B62000DDE90C2301F03EF8C9F30A548346002CEF
:10B630007ED00D9BCDF84C80C3F31303DDE90C01E4
:10B6400043F07F5141F44011A4F2FF34804B0022BB
:10B65000FAF702FE74A3D3E90023FAF7B5FF74A347
:10B66000D3E90023FAF7FAFD064620460F46FAF71B
:10B6700041FF71A3D3E90023FAF7A6FF02460B4668
:10B6800030463946FAF7EAFD06460F46FBF74CFA14
:10B6900000228246002330463946FBF707FA48B1BC
:10B6A0005046FAF727FF32463B46FBF7F5F908B953
:10B6B0000AF1FF3ABAF1160F57D8664B03EBCA03EB
:10B6C000D3E90023DDE90C01FBF7F0F900284ED0A7
:10B6D0000AF1FF3A00230F93169B1C1B631E09936C
:10B6E00045BFC4F101030693002300234CBF099317
:10B6F0000693BAF1000F3CDB099BCDF838A0534408
:10B70000099300230A93229B092B00F2B580052B95
:10B71000C4BF043B2293229BA3F10203CCBF0024AD
:10B720000124032B00F2B480DFE803F02D987AA403
:10B73000DDE916431C4404F23243202BC3BFC3F19E
:10B74000400304F2124009FA03F3C3F12003C6BF19
:10B7500026FA00F0184306FA03F0FAF7BBFE0123BD
:10B76000A1F1F871013C139370E70123B3E70F9047
:10B77000B2E7069BA3EB0A030693CAF100030A9300
:10B7800000230E93BFE700230B93239B002B00F3B2
:10B7900082804FF00109CDF820904B46CDF88C9077
:10B7A0006E6A00227260042202F1140098427168ED
:10B7B00077D9284600F0BCFC6B6A30601B680393A5
:10B7C000089B0E2B00F2EE80002C00F0EB80BAF10B
:10B7D000000F7ADD1F4A0AF00F0302EBC303D3E91F
:10B7E00000341AF4807FCDE910344FEA2A145CD07B
:10B7F000194BDDE90C01D3E90823FBF70FF8CDE97C
:10B80000040104F00F040327134E002C4FD1DDE98F
:10B810001023DDE90401FBF701F8CDE904016EE036
:10B820000123B1E7AFF3008061436F63A787D23F85
:10B83000B3C8608B288AC63FFB799F501344D33F1F
:10B840000000F07F48F002083FF002081F1D0308C7
:10B850000000F83F78F0020850F0020800230B9334
:10B86000239B0AEB030909F10103012B0893B8BFDD
:10B87000012395E70123F2E70124002322930B948F
:10B880004FF0FF390022CDF820901223239287E752
:10B8900001230B93F4E7DDF88C90CDF820904B4614
:10B8A0007EE70131716052007EE70227ACE7E107D5
:10B8B00008D5DDE91001D6E90023FAF785FECDE9C8
:10B8C00010010137641008369FE700F0A580CAF127
:10B8D0000004A44BA44E04F00F0203EBC203D3E90F
:10B8E0000023DDE90C01FAF76FFECDE90401241114
:10B8F00000230227002C40F08480002B8DD10F9B69
:10B90000002B00F08B80DDE90434CDE91034DDE953
:10B910001001964B0022FBF7C9F800287ED0089B47
:10B92000002B7BD0B9F1000F38DDDDE91001904B21
:10B930000022FAF749FECDE904010AF1FF38013788
:10B940004C463846FAF7D6FDDDE90423FAF73CFE0B
:10B95000884B0022FAF782FCA1F15076CDE9100164
:10B960001196002C5DD1DDE90401834B0022FAF72A
:10B9700073FC02460B46CDE90423109A3346FBF7CD
:10B98000B3F8002840F09782DDE90401109A06F12F
:10B990000043FBF78BF8002840F08B82DDE90C3484
:10B9A000CDE90434179B002BC0F25181BAF10E0F80
:10B9B00000F34D816B4B03EBCA03D3E90034CDE9AF
:10B9C0000634239B002B80F2DB80089B002B00F3C6
:10B9D000D78040F06D82684B0022DDE90601FAF75E
:10B9E000F3FDDDE90423FBF775F8089C26460028E3
:10B9F00040F04382039F312307F8013B0AF1010A1B
:10BA00003FE2E20705D5D6E90023FAF7DDFD01376D
:10BA10000123641008366DE7022770E7089CD046C2
:10BA20008FE703994F4B214412910B9903EBC40309
:10BA3000DDE9106753E90223002946D04F49002071
:10BA4000FAF7ECFE3B463246FAF706FCCDE9100168
:10BA5000039FDDE90401FBF767F80446FAF74AFDA6
:10BA600002460B46DDE90401FAF7F6FB30340246E4
:10BA70000B46CDE9042307F8014BDDE91023FBF762
:10BA800015F8002865D1DDE9042338490020FAF7CC
:10BA9000E3FBDDE91023FBF709F8002840F0B6804E
:10BAA000129B9F423FF47AAFDDE91001304B002238
:10BAB000FAF78AFD2E4BCDE910010022DDE90401E1
:10BAC000FAF782FDCDE90401C3E730463946FAF7BB
:10BAD0007BFDCDE91001129B039C1493DDE9040169
